:100000000C9464000C948C000C948C000C948C0068
:100010000C948C000C948C000C948C000C940A07AB
:100020000C948C000C948C000C948C000C948C0020
:100030000C948C000C948C000C948C000C948C0010
:100040000C94E4070C948C000C94B2070C948C076D
:100050000C948C000C948C000C948C000C948C00F0
:100060000C948C000C948C000000000024002700ED
:100070002A0000000000250028002B0000000000DE
:1000800023002600290004040404040404040202DA
:100090000202020203030303030301020408102007
:1000A0004080010204081020010204081020000012
:1000B0000008000201000003040700000000000027
:1000C000000002002E080A0F11241FBECFEFD8E057
:1000D000DEBFCDBF12E0A0E0B1E0E4EAF4E202C08E
:1000E00005900D92AA36B107D9F723E0AAE6B2E04F
:1000F00001C01D92A138B207E1F710E0C3E6D0E0DD
:1001000004C02197FE010E944D10C236D107C9F7E5
:100110000E9490080C9445120C940000AF92BF927C
:10012000CF92DF92EF92FF920F931F93CF93DF93C3
:100130006C017B018B01040F151FEB015E01AE18F2
:10014000BF08C017D10759F06991D601ED91FC9114
:100150000190F081E02DC6010995892B79F7C50141
:10016000DF91CF911F910F91FF90EF90DF90CF9093
:10017000BF90AF900895FC01538D448D252F30E042
:10018000842F90E0821B930B541710F0CF960895A4
:1001900001970895FC01918D828D981761F0A28DD1
:1001A000AE0FBF2FB11D5D968C91928D9F5F9F7397
:1001B000928F90E008958FEF9FEF0895FC01918D4D
:1001C000828D981731F0828DE80FF11D858D90E0BA
:1001D00008958FEF9FEF0895FC01918D228D892F57
:1001E00090E0805C9F4F821B91098F73992708953F
:1001F00080EB92E00E94EC0021E0892B09F420E0E2
:10020000822F089580E090E0892B29F00E94F80069
:1002100081110C9400000895FC01A48DA80FB92F42
:10022000B11DA35ABF4F2C91848D90E001968F731E
:100230009927848FA689B7892C93A089B1898C913D
:10024000837080648C93938D848D981306C002888C
:10025000F389E02D80818F7D80830895EF92FF9256
:100260000F931F93CF93DF93EC0181E0888F9B8DD9
:100270008C8D98131AC0E889F989808185FF15C093
:100280009FB7F894EE89FF896083E889F9898081B6
:100290008370806480839FBF81E090E0DF91CF9185
:1002A0001F910F91FF90EF900895F62E0B8D10E0A7
:1002B0000F5F1F4F0F731127E02E8C8D8E110CC016
:1002C0000FB607FCFACFE889F989808185FFF5CF61
:1002D000CE010E940C01F1CFEB8DEC0FFD2FF11D33
:1002E000E35AFF4FF0829FB7F8940B8FEA89FB899E
:1002F00080818062CFCF682F80EB92E00C942E013A
:10030000CF93DF93EC01888D8823B9F0AA89BB894C
:10031000E889F9898C9185FD03C0808186FD0DC037
:100320000FB607FCF7CF8C9185FFF2CF808185FF58
:10033000EDCFCE010E940C01E9CFDF91CF9108955E
:10034000833081F028F4813099F08230A9F008954B
:100350008730A9F08830C9F08430B1F480918000F2
:100360008F7D03C0809180008F77809380000895F7
:1003700084B58F7784BD089584B58F7DFBCF809140
:10038000B0008F778093B00008958091B0008F7D8A
:10039000F9CFCF93DF93282F30E0F901E255FF4FDB
:1003A0008491F901E656FF4FD491F901EA57FF4FC6
:1003B000C491CC23A1F081110E94A001EC2FF0E0A8
:1003C000EE0FFF1FE458FF4FA591B491EC91ED2380
:1003D00081E090E009F480E0DF91CF91089580E022
:1003E00090E0FACF1F93CF93DF93282F30E0F901ED
:1003F000E255FF4F8491F901E656FF4FD491F90180
:10040000EA57FF4FC491CC23A9F0162F81110E9407
:10041000A001EC2FF0E0EE0FFF1FEE58FF4FA5916B
:10042000B4918FB7F894EC91111108C0D095DE23E8
:10043000DC938FBFDF91CF911F910895DE2BF8CF12
:10044000CF93DF9390E0FC01E656FF4F24918A574B
:100450009F4FFC0184918823D1F090E0880F991F71
:10046000FC01E859FF4FA591B491FC01EE58FF4FF4
:10047000C591D491623071F49FB7F8943C91822F6A
:10048000809583238C93E8812E2B28839FBFDF9157
:10049000CF9108958FB7F894EC912E2B2C938FBFAA
:1004A000F6CF3FB7F8948091750290917602A091B3
:1004B0007702B091780226B5A89B05C02F3F19F0AE
:1004C0000196A11DB11D3FBFBA2FA92F982F8827D4
:1004D000BC01CD01620F711D811D911D42E0660FAF
:1004E000771F881F991F4A95D1F708958F929F9281
:1004F000AF92BF92CF92DF92EF92FF924B015C01DD
:100500000E9451026B017C010E9451026C197D090D
:100510008E099F09683E734081059105A8F321E08B
:10052000821A9108A108B10888EEC80E83E0D81E8F
:10053000E11CF11C81149104A104B10429F7FF907E
:10054000EF90DF90CF90BF90AF909F908F900895E5
:10055000089590E080E008950F931F93CF93DF9369
:100560008B01EA010E947B01C8010E947B01CE0140
:10057000DF91CF911F910F910C947B011F93CF932B
:10058000DF93D0E0C0E01CE080919E0290919F023A
:10059000189FB001199F700D11246B5E7F4F6C0F77
:1005A0007D1F8091A6029091A702019750E040E044
:1005B00080680E94AC0280919C0290919D02189FDD
:1005C000B001199F700D11246B5E7F4F6C0F7D1F62
:1005D0008091A4029091A502019750E040E08068CC
:1005E0000E94AC022196C031D10571F6DF91CF9106
:1005F0001F910895CF93809100018D3021F08F3F9E
:1006000061F1CF910895E2ECF0E0C491C7FDF9CF1C
:1006100061E08DE00E942002CC2309F48CC0C2303E
:1006200009F0A1C08091B100887F83608093B10000
:1006300089E88093B30088E490E0A0E0B0E0809384
:100640007C0290937D02A0937E02B0937F02809102
:100650007000826080937000D4CF8DE080930001A1
:10066000E2ECF0E0C491CF3F61F2C13021F150F0F3
:10067000C23009F43EC0C7FDC4CF61E08DE00E94E6
:100680002002CDCF14BC15BC84B5826084BD85B575
:10069000816085BDE3E9F0E0E491F0E0EE0FFF1F3B
:1006A000EE58FF4F85919491E7EAF0E0E491E093F2
:1006B0006B02C0E0ADCF109280001092810080915B
:1006C00081008860809381008091810081608093A7
:1006D0008100E3E9F0E0E491F0E0EE0FFF1FEE5857
:1006E000FF4F85919491E7EAF0E0E491E0936A028C
:1006F0008FCF1092B0001092B1008091B000826054
:100700008093B0008091B10081608093B100E3E9F3
:10071000F0E0E491F0E0EE0FFF1FEE58FF4F8591FF
:10072000949190937A0280937902E7EAF0E0E49161
:10073000E0937B026DCF85B5887F836085BD84E4BF
:1007400087BD88E490E0A0E0B0E0809370029093D1
:100750007102A0937202B093730280916E00826066
:1007600080936E004ECFC130F1F480918100887F7C
:100770008160809381008BE591E190938900809363
:10078000880088E490E0A0E0B0E080936C02909351
:100790006D02A0936E02B0936F0280916F00826031
:1007A00080936F002ECFC23021F0C1112ACF8BE58C
:1007B000C7CF8BE53ECFCF93DF93EC0160E08E8116
:1007C0000E94F20161E08E810E94F20160E08E8160
:1007D0000E94F2018BE891E00197F1F7DF91CF9150
:1007E0000895CF92DF92EF92FF920F931F93CF93D2
:1007F000DF936C017C0187E0E80EF11CD0E0C0E0E3
:10080000062F10E0B8010C2E02C0759567950A946A
:10081000E2F76170F70181917F010E94F201219658
:10082000C430D10579F7C601DF91CF911F910F91A7
:10083000FF90EF90DF90CF900C94DB03CF92DF928C
:10084000EF92FF920F931F93CF93DF93EC01F62E5D
:10085000642F8C810E94F2018D818F3F19F060E03E
:100860000E94F2010F2D10E08F8584FF25C06E01DC
:1008700087E0C80ED11CF12CE12CB8010E2C02C06F
:10088000759567950A94E2F76170F60181916F01A1
:100890000E94F201FFEFEF1AFF0A88E0E816F10468
:1008A00061F7CE01DF91CF911F910F91FF90EF90F3
:1008B000DF90CF900C94DB03B80184E075956795C9
:1008C0008A95E1F7CE010E94F1036F2DCE01DF91F1
:1008D000CF911F910F91FF90EF90DF90CF900C94EC
:1008E000F10340E0682F85E693E00C941E0481E05C
:1008F0000E9471048BE39FE10197F1F70895CF9374
:10090000DF93823029F4909174039860909374037C
:10091000809378031092790380E480937A0380E1D6
:1009200080937B0380E580937C0361E08091690381
:100930000E94200280916A038F3F19F061E00E94BB
:10094000200261E080916B030E942002C5E6D3E0A3
:100950009E01255633408091740384FD0BC084E0D2
:1009600090E021962817390744F461E08E810E94B7
:100970002002EECF88E090E0F4CF8BE39DE001977A
:10098000F1F760E0809169030E94F20160E08091DC
:100990006B030E94F20180916A038F3F19F060E0BF
:1009A0000E94F2018091740384FD34C063E085E607
:1009B00093E00E94F103CBE4D6E4CE010197F1F776
:1009C00063E085E693E00E94F1032197F1F763E08D
:1009D00085E693E00E94F10383E592E00197F1F749
:1009E00062E085E693E00E94F103809174038062E7
:1009F0000E94710484E0809375038CE00E9471046E
:100A00000E94770482E08093760386E0DF91CF91A5
:100A10000C94710480620E9471048BE496E4019747
:100A2000F1F78091740380620E94710483E592E083
:100A30000197F1F78091740380620E947104D5CF11
:100A4000CF93DF93EC0180917803481710F04FEFBC
:100A5000480FE42FF0E0EB59FC4F8489860F806843
:100A60000E9471044C815D816881798185E693E003
:100A7000DF91CF910C948E0041E00E941E0481E032
:100A800090E00895FC0101900020E9F73197AF0153
:100A9000481B590BBC0185E693E00C948E000F9324
:100AA0001F93CF93DF93EC0188819981009759F0D0
:100AB0002A813B812617370730F081E0DF91CF9103
:100AC0001F910F9108958B016F5F7F4F0E947811E6
:100AD000009759F0998388831B830A832C813D8179
:100AE000232B59F7FC011082E8CF80E0E7CFCF93AA
:100AF000DF93EC0188819981009711F00E94EF103B
:100B0000198218821D821C821B821A82DF91CF916A
:100B10000895CF92DF92EF92FF920F931F93CF939E
:100B2000DF93CDB7DEB728970FB6F894DEBF0FBEC0
:100B3000CDBF7C01CB014AE09E012F5F3F4F690191
:100B4000B9010E94410FF60101900020E9F73197A9
:100B5000EC19FD09D9F0D70114960D911C910E0FD7
:100B60001F1FB801C7010E944F058823F9F0F70144
:100B70002081318184819581B601820F931F0E946B
:100B80003E12D70115961C930E931497C701289611
:100B90000FB6F894DEBF0FBECDBFDF91CF911F918E
:100BA0000F91FF90EF90DF90CF900895C7010E94C2
:100BB0007705ECCFEF92FF920F931F93CF93DF93C4
:100BC0008C017B01FB0101900020E9F73197E61BC6
:100BD000F70BD1F0DC011496CD91DC91CE0FDF1F25
:100BE000BE010E944F058823B9F0F80120813181B0
:100BF00084819581B701820F931F0E943E12D80114
:100C00001596DC93CE931497C801DF91CF911F9175
:100C10000F91FF90EF900895C8010E947705F4CFDF
:100C2000EF92FF920F931F93CF93DF93EC017B0121
:100C30008A01BA010E944F0581110BC0CE010E94AA
:100C40007705CE01DF91CF911F910F91FF90EF902B
:100C500008951D830C83B701888199810E943E12FB
:100C6000F0CFFB0101900020E9F73197AF01461B5F
:100C7000570B0C941006FB01DC0111961C921E927E
:100C800013961C921E92129715961C921E92149700
:100C90008617970749F0608171816115710521F010
:100CA000448155810C9410060895FC011182108234
:100CB00013821282158214826115710551F0FB01B5
:100CC00001900020E9F73197AF01461B570B0C94B8
:100CD00010060895AF92BF92CF92DF92EF92FF92EB
:100CE0000F931F93CF93DF936C015B017A0189010E
:100CF0002417350720F48F2D7901042F182F67E46E
:100D000072E0C6010E945506D5011496CD91DC9182
:100D1000EC16FD06E0F40C171D0708F4E801D501F8
:100D2000ED91FC911197EC0FFD1F108110826D91D8
:100D30007C916E0D7F1DC60161157105A1F00E94A9
:100D40003106F50180819181C80FD91F1883C60132
:100D5000DF91CF911F910F91FF90EF90DF90CF9097
:100D6000BF90AF9008950E947705EBCFFC01808182
:100D70009181009711F00C94EF100895CF92DF92BB
:100D8000EF92FF921F93CF93DF9300D000D000D05B
:100D9000CDB7DEB76C01162F8CE1E82E81E0F82E7E
:100DA00082E2E81681E0F80641F0F70161917F01E7
:100DB00080EB92E00E942E01F3CF24E030E041E08E
:100DC00050E0B601CE0101960E946A06106C812F98
:100DD00090E00E947B0189819A8160E0009711F088
:100DE0000E941A0F80EB92E00E942E010E94FA02EC
:100DF000CE0101960E94B60626960FB6F894DEBF85
:100E00000FBECDBFDF91CF911F91FF90EF90DF908C
:100E1000CF9008951F920F920FB60F9211242F9327
:100E20003F934F935F936F937F938F939F93AF9372
:100E3000BF93EF93FF9380917C0290917D02A091EC
:100E40007E02B0917F02892B8A2B8B2BD1F190915E
:100E50007B02E0917902F0917A0280818927808378
:100E600080917C0290917D02A0917E02B0917F02E0
:100E7000181619061A061B069CF480917C029091A4
:100E80007D02A0917E02B0917F020197A109B10974
:100E900080937C0290937D02A0937E02B0937F02A8
:100EA000FF91EF91BF91AF919F918F917F916F9142
:100EB0005F914F913F912F910F900FBE0F901F9018
:100EC000189580910001E2ECF0E0E4919FEF90939F
:100ED0000001E13051F030F0E23069F060E00E9452
:100EE000F201DECF10926E00F9CF90916F009D7FDE
:100EF00090936F00F3CF909170009D7F909370005E
:100F000091E09093B0009091B100987F946090939D
:100F1000B1001092B300E2CF1F920F920FB60F9262
:100F200011242F933F934F935F936F937F938F93EE
:100F30009F93AF93BF93EF93FF9380EB92E00E9458
:100F40000C01FF91EF91BF91AF919F918F917F9194
:100F50006F915F914F913F912F910F900FBE0F9026
:100F60001F9018951F920F920FB60F9211242F9376
:100F70008F939F93EF93FF93E091C002F091C10292
:100F80008081E091C602F091C70282FD1BC0908172
:100F90008091C9028F5F8F732091CA02821741F03E
:100FA000E091C902F0E0E055FD4F958F8093C902B2
:100FB000FF91EF919F918F912F910F900FBE0F9006
:100FC0001F9018958081F4CF1F920F920FB60F9249
:100FD00011242F933F938F939F93AF93BF9380914F
:100FE000800290918102A0918202B091830230919F
:100FF000740223E0230F2D3758F50196A11DB11D72
:10100000209374028093800290938102A0938202C5
:10101000B09383028091750290917602A09177023D
:10102000B09178020196A11DB11D80937502909335
:101030007602A0937702B0937802BF91AF919F910F
:101040008F913F912F910F900FBE0F901F90189589
:1010500026E8230F0296A11DB11DD2CFE0EBF2E0EE
:101060001382128288EE93E0A0E0B0E0848395833F
:10107000A683B7838EE491E09183808385EC90E032
:101080009587848784EC90E09787868780EC90E052
:10109000918B808B81EC90E0938B828B82EC90E043
:1010A000958B848B86EC90E0978B868B118E128EBD
:1010B000138E148EE5E6F3E01382128280E691E04F
:1010C000918380838CE084838FEF85838BE086839C
:1010D00085E0878384E0808783E0818782E0828760
:1010E0001386148615861686178681E00E947F0473
:1010F00067E472E08FE593E00E94550667E472E0D2
:1011000089E593E00E94550667E472E083E593E089
:101110000E94550667E472E08DE493E00C94550656
:10112000CF93DF93CDB7DEB762970FB6F894DEBFEB
:101130000FBECDBF789484B5826084BD84B58160D4
:1011400084BD85B5826085BD85B5816085BD809192
:101150006E00816080936E0010928100809181000A
:101160008260809381008091810081608093810002
:10117000809180008160809380008091B1008460C4
:101180008093B1008091B00081608093B000809125
:101190007A00846080937A0080917A0082608093E4
:1011A0007A0080917A00816080937A0080917A0041
:1011B000806880937A001092C10061E086E00E940E
:1011C000200261E087E00E94200261E088E00E9446
:1011D000200261E089E00E94200261E083E10E9438
:1011E000200262E08AE00E94200262E082E10E9426
:1011F000200282E00E947F04E091C002F091C102CF
:1012000082E08083E091BC02F091BD021082E09107
:10121000BE02F091BF028FE380831092C802E0917A
:10122000C402F091C50286E08083E091C202F09191
:10123000C302808180618083E091C202F091C30289
:10124000808188608083E091C202F091C302808136
:1012500080688083E091C202F091C30280818F7D1B
:10126000808382E00E9471048BE39FE10197F1F794
:1012700061E083E10E94F20168E671E0CE0101962F
:101280000E94550650E040E062E070E0CE01019619
:101290000E942005CE0101960E94B60665E771E026
:1012A000CE0101960E94550641E050E063E070E0F7
:1012B000CE0101960E942005CE0101960E94B6063D
:1012C0006CED75E080E090E00E9476022FB7F89414
:1012D0008091800290918102A0918202B09183025C
:1012E0002FBF843C9940A105B10540F488E10E94DC
:1012F000710464E670E080E090E0E6CF0E9477043D
:1013000064E670E080E090E00E94760260E871E0C0
:10131000CE0101960E94550650E040E063E070E087
:10132000CE0101960E942005CE0101960E94B606CC
:101330006CE871E0CE0101960E94550641E050E054
:1013400063E070E0CE0101960E942005CE01019677
:101350000E94B60660ED77E080E090E00E947602A1
:101360000E94770422242A94322C8FB7F89440905C
:1013700080025090810260908202709083028FBF41
:1013800068E971E08FE593E00E9431066DE971E054
:1013900089E593E00E94310662EA71E083E593E01B
:1013A0000E94310682E10E94C9014C01182FB8E960
:1013B000AB2EB2E0BB2E42E451E05A8B498B8CEA53
:1013C00092E0988B8F87E6E4F1E0FE87ED87D12CE1
:1013D000C12CED85FE858191FE87ED878E3008F06A
:1013E0008E508770806480937C0080917A00806446
:1013F00080937A0080917A0086FDFCCF80917800FE
:1014000020917900E989FA890191FA8BE98B322FD1
:10141000282F032E000C440B550B2F5F334041093E
:101420005109A1E0BFEF0E94B80F21E03CEF4FEF60
:101430005FEF0E948B0FDA01C90181509F4FAF4FC0
:10144000BF4F8130F1E09F0714F080E091E097FFFB
:1014500002C090E080E0602F70E00E942510062F0F
:10146000262FEF85F8896193F88BEF87809115011E
:101470008130A1F58091AC0290E09093AB02809313
:10148000AA029093A9028093A8028091AD0290E0F5
:1014900001969093A7028093A6029093A502809351
:1014A000A4028091AE02F4E08F9FC00111248A5BF8
:1014B0009F4F9093A3028093A2029093A1028093E6
:1014C000A0028091AF0290E090939F0280939E02D1
:1014D00090939D0280939C0210921501F5018081EA
:1014E000281709F4B9C261E083E10E94F201409239
:1014F0009402509295026092960270929702F501C2
:101500000083F2E0CF16D10409F469C223E0C216C9
:10151000D10409F4ACC231E0C316D10409F461C1AD
:101520008091AC0290E0FC01EE0FFF1FEE5DFE4FDC
:1015300060817181111150C19093A9028093A8021A
:10154000CE0101960E94550650E040E070E060E058
:10155000CE0101960E942005CE0101960E94B6069A
:101560001092930210929202113009F078C2E09129
:10157000AA02F091AB02EE0FFF1FEE5DFE4F6081FD
:101580007181CE0101960E94550650E040E070E066
:1015900060E0CE0101960E942005CE0101960E94D6
:1015A000B606E090A602F090A70269E573E0CE01CE
:1015B00007960E943B06B701CE0107960E94890557
:1015C00066E472E00E94DA05BC01CE0101960E9439
:1015D0003B0641E050E070E060E0CE0101960E94E1
:1015E0002005CE0101960E94B606CE0107960E9404
:1015F000B60680918E0290918F02A0919002B091D8
:101600009102A3019201281B390B4A0B5B0BDA01F3
:10161000C901813D9740A105B10508F05DC2E09088
:10162000A202F090A30263E573E0CE0107960E9448
:101630003B06B701CE0107960E94890566E472E079
:101640000E94DA05BC01CE0101960E943B0641E0F2
:1016500050E068E070E0CE0101960E942005CE01C6
:1016600001960E94B606CE0107960E94B6068091AA
:10167000A4029091A502833091050CF051C28CEB2D
:1016800091E00E9442054FEFC41AD40A5FEFA51AF9
:10169000B50A84E0C816D10409F09BCE809194026B
:1016A00090919502A0919602B0919702A3019201A8
:1016B000281B390B4A0B5B0BDA01C90188389341AF
:1016C000A105B10520F060E083E10E94F20141E054
:1016D000C42E41E0D42E10E000E05401BB245CE0B5
:1016E000952E01FB442740F94D8740938C021092C0
:1016F0008D0202FB882480F880928A0210928B026D
:10170000780133E0F594E7943A95E1F7F092890295
:10171000E0928802B8016170772786E00E94F201AA
:101720006D8587E00E94F201682D88E00E94F20139
:101730006E2D89E00E94F2018AE00E94C901982F73
:10174000A114B10409F416C251E0A516B10409F0C0
:101750002AC2F6018081981709F425C2908340912E
:10176000A2025091A30220919E0230919F02929E6C
:10177000B001939E700D11246B5E7F4F600F711F3F
:101780002091A6023091A70221503109E090A402D5
:10179000F090A5029111D1C1C90180690E94AC02EB
:1017A000F3E0EF16F1040CF4FEC14091A002509159
:1017B000A10280919C0290919D02989EB001999EF9
:1017C000700D11246B5E7F4F600F711FC701019771
:1017D00080690E94AC02E7C19093AB028093AA0299
:1017E000AFCE0E94BE02E090AD02F12C4FEFE41AA2
:1017F000F40A1111BDC0F092A502E092A40269E5BD
:1018000073E0CE0107960E943B06B701CE01079612
:101810000E94890566E472E00E94DA05BC01CE01EF
:1018200001960E943B0641E050E070E060E0CE018E
:1018300001960E942005CE0101960E94B606CE01B7
:1018400007960E94B606309214012092130140922E
:10185000940250929502609296027092970261E013
:1018600083E10E94F201E091A802F091A902EE0F3B
:10187000FF1FEE5DFE4F60817181CE0101960E94D7
:10188000550650E040E070E060E0CE0101960E9415
:101890002005CE0101960E94B606E090A402F090C9
:1018A000A50269E573E0CE0107960E943B06B701E9
:1018B000CE0107960E94890566E472E00E94DA056F
:1018C000BC01CE0101960E943B0641E050E070E071
:1018D00060E0CE0101960E942005CE0101960E9493
:1018E000B606CE0107960E94B60680918E029091B0
:1018F0008F02A0919002B0919102A3019201281B46
:10190000390B4A0B5B0BDA01C901813D9740A105F8
:10191000B10508F0F3C0E090A002F090A10263E5E9
:1019200073E0CE0107960E943B06B701CE010796F1
:101930000E94890566E472E00E94DA05BC01CE01CE
:1019400001960E943B0641E050E068E070E0CE0165
:1019500001960E942005CE0101960E94B606CE0196
:1019600007960E94B60610929302109292027FCEC2
:10197000F092A702E092A60269E573E0CE01079615
:101980000E943B06B701CE0107960E94890566E4D6
:1019900072E00E94DA05BC01CE0101960E943B066E
:1019A00041E050E070E060E0CE0101960E94200529
:1019B000CE0101960E94B606CE0107960E94B60699
:1019C0003092120120921101113009F050CE809115
:1019D00092029091930205970CF0E3CDC8CDE09070
:1019E000AE0254E0E59E7001112486E4E80EF11C7D
:1019F000111138C0F092A102E092A00263E573E0F9
:101A0000CE0107960E943B06B701CE0107960E94C1
:101A1000890566E472E00E94DA05BC01CE010196F8
:101A20000E943B0641E050E068E070E0CE01019684
:101A30000E942005CE0101960E94B606CE010796AF
:101A40000E94B60640928E0250928F0260929002DF
:101A5000709291020E94FA02113009F4B8CF11116C
:101A600006CEF5CEF092A302E092A202C7CF0E946A
:101A7000BE02E090AF02F12C111129C0F0929D023C
:101A8000E0929C026FE573E0CE0107960E943B0650
:101A9000B701CE0107960E94890565E472E00E94B5
:101AA000DA05BC01CE0101960E943B0641E050E000
:101AB00068E070E0CE0101960E942005CE010196FB
:101AC0000E94B606CE0107960E94B606C3CFF092DA
:101AD0009F02E0929E02D6CFE0909E02F0909F027D
:101AE0006FE573E0CE0107960E943B06B701CE0179
:101AF00007960E94890565E472E0A2CDE0909C0201
:101B0000F0909D026FE573E0CE0107960E943B06C0
:101B1000B701CE0107960E94890565E472E00CCFFB
:101B20002091A6023091A7028217930719F487EA41
:101B300091E0A7CD89EA91E0A4CDC90180680E9417
:101B4000AC0223E0E216F10474F14091A00250913E
:101B5000A10280919C0290919D02989EB001999E55
:101B6000700D11246B5E7F4F600F711FC7010197CD
:101B700080682FCEF60180819817A9F0908391118B
:101B800013C140928E0250928F0260929002709226
:101B900091020130110509F4EFC00CF0CCC0011521
:101BA000110509F4D2C00F5F1F4F5FEFC51AD50AA8
:101BB0000031110509F095CD809184029091850244
:101BC000A0918602B0918702A3019201281B390BD4
:101BD0004A0B5B0BDA01C901843F9140A105B105B5
:101BE00008F450C000919202109193020E3011053A
:101BF0000CF048C0E091AA02F091AB02409284023E
:101C0000509285026092860270928702C801019606
:101C100090939302809392020B97A4F1EE0FFF1F13
:101C2000EE5DFE4F608171818DE493E06115710579
:101C300009F4EDC00E943106209151033091520306
:101C4000A801485051096DE473E0CE0107960E9447
:101C50006A060E947704BE01695F7F4FCE0101963C
:101C60000E943B0650E040E070E060E0CE0101964B
:101C70000E942005CE0101960E94B606CE0107966D
:101C80000E94B6060091AA021091AB028091110148
:101C90009091120180179107D9F0F090A602FA9462
:101CA000F801EE0FFF1FEE5DFE4F60817181CE01E6
:101CB00001960E9455066F2DCE0101960E94BE0628
:101CC000CE0101960E94B6061093120100931101F5
:101CD0000091A8021091A902809113019091140122
:101CE00080179107D9F0F090A402FA94F801EE0F52
:101CF000FF1FEE5DFE4F60817181CE0101960E9453
:101D000055066F2DCE0101960E94BE06CE010196AA
:101D10000E94B606109314010093130180E090E036
:101D2000892B09F422CB0E94F800882309F41DCBEB
:101D30000E9400001ACB0230110529F10330110571
:101D400009F031CF0E94FA022ECF25E030E0309327
:101D5000A5022093A40242E050E050939D024093DC
:101D60009C0289E090E09093A9028093A8023092AF
:101D700014012092130117CFE2E0F0E0F093A502E6
:101D8000E093A402DFCF25E030E03093A50220935A
:101D9000A40210939D0200939C024CE050E05093EB
:101DA000A9024093A802E3CF4091A2025091A3025E
:101DB00080919E0290919F02989EB001999E700D15
:101DC00011246B5E7F4F600F711F8091A60290916E
:101DD000A702019780680E94AC028091A4029091B2
:101DE000A502833091050CF4DECE4091A002509103
:101DF000A10220919C0230919D02929EB001939E7F
:101E0000700D11246B5E7F4F600F711FB0CE0E946A
:101E1000770512CF8DE493E00E94B60683E593E048
:101E20000E94B60689E593E00E94B6068FE593E02E
:101E30000C94B6061F93FC0199278827BC01E894EF
:101E400011911032E9F3193010F01E30C8F31B3233
:101E500051F01D3249F4689406C00E944C0F610F86
:101E6000711D811D911D119110531A30B0F33EF474
:101E700090958095709561957F4F8F4F9F4F1F91E3
:101E80000895BB274A3031F4992322F4BDE290959E
:101E900081959F4F0C94620F592F482F372F262F73
:101EA000660F771F881F991F660F771F881F991F5E
:101EB000620F731F841F951F660F771F881F991F5E
:101EC0000895BB27FB015527AA27880F991FAA1F32
:101ED000A41710F0A41B83955051B9F7A05DAA3345
:101EE00008F0A95DA193009779F7B111B193119210
:101EF000CB010C947B0FDC01FC01672F71917723E0
:101F0000E1F7329704C07C916D9370836291AE17B4
:101F1000BF07C8F30895052E97FB1EF400940E9496
:101F2000A20F57FD07D00E94F40F07FC03D04EF418
:101F30000C94A20F50954095309521953F4F4F4FEF
:101F40005F4F089590958095709561957F4F8F4F65
:101F50009F4F08950E941610A59F900DB49F900D5D
:101F6000A49F800D911D11240895B7FF0C94AA0F12
:101F70000E94AA0F821B930B08952F923F924F92BB
:101F80005F926F927F928F929F92AF92BF92CF9209
:101F9000DF92EF92FF920F931F93CF93DF93CDB712
:101FA000DEB7CA1BDB0B0FB6F894DEBF0FBECDBF8A
:101FB00009942A88398848885F846E847D848C845B
:101FC0009B84AA84B984C884DF80EE80FD800C8164
:101FD0001B81AA81B981CE0FD11D0FB6F894DEBF47
:101FE0000FBECDBFED010895A1E21A2EAA1BBB1BA7
:101FF000FD010DC0AA1FBB1FEE1FFF1FA217B307D5
:10200000E407F50720F0A21BB30BE40BF50B661FEA
:10201000771F881F991F1A9469F7609570958095AE
:1020200090959B01AC01BD01CF010895A29FB00125
:10203000B39FC001A39F700D811D1124911DB29FFC
:10204000700D811D1124911D089597FB072E16F424
:10205000009407D077FD09D00E94391007FC05D005
:102060003EF4909581959F4F0895709561957F4FAF
:102070000895AA1BBB1B51E107C0AA1FBB1FA617CF
:10208000B70710F0A61BB70B881F991F5A95A9F721
:1020900080959095BC01CD010895EE0FFF1F05902E
:1020A000F491E02D09940F931F93CF93DF93823027
:1020B000910510F482E090E0E0917F03F0918003BD
:1020C00030E020E0B0E0A0E0309799F42115310530
:1020D00009F44AC0281B390B24303105D8F58A8110
:1020E0009B816115710589F1FB0193838283FE0158
:1020F00011C0408151810281138148175907E0F0D6
:102100004817590799F4109761F012960C9312979B
:1021100013961C933296CF01DF91CF911F910F91AF
:10212000089500937F0310938003F4CF21153105A8
:1021300051F04217530738F0A901DB019A01BD01A4
:10214000DF01F801C1CFEF01F9CF909380038093B5
:102150007F03CDCFFE01E20FF31F819391932250B5
:10216000310939832883D7CF20917D0330917E03B5
:10217000232B41F4209118013091190130937E03F3
:1021800020937D032091160130911701211531050F
:1021900041F42DB73EB740911A0150911B01241B09
:1021A000350BE0917D03F0917E03E217F307A0F475
:1021B0002E1B3F0B2817390778F0AC014E5F5F4F9D
:1021C0002417350748F04E0F5F1F50937E0340934E
:1021D0007D03819391939FCFF0E0E0E09CCFCF937C
:1021E000DF930097E9F0FC01329713821282A091ED
:1021F0007F03B0918003ED0130E020E01097A1F45F
:1022000020813181820F931F20917D0330917E03C5
:102210002817390709F061C0F0937E03E0937D032E
:10222000DF91CF910895EA01CE17DF07E8F54A81E3
:102230005B819E0141155105B1F7E901FB83EA83FA
:1022400049915991C40FD51FEC17FD0761F48081A6
:1022500091810296840F951FE90199838883828179
:1022600093819B838A83F0E0E0E012968D919C91AC
:1022700013970097B9F52D913C911197CD010296D6
:10228000820F931F20917D0330917E032817390719
:1022900039F6309751F51092800310927F03B09376
:1022A0007E03A0937D03BCCFD383C2834081518141
:1022B000840F951FC817D90761F44E5F5F4F88815F
:1022C0009981480F591F518340838A819B81938351
:1022D00082832115310509F0B0CFF0938003E0939C
:1022E0007F039ECFFD01DC01C0CF13821282D7CFC6
:1022F000B0E0A0E0EEE7F1E10C94BF0F8C01009795
:1023000051F4CB010E9453108C01C801CDB7DEB748
:10231000E0E10C94DB0FFC01E60FF71F9C0122505B
:102320003109E217F30708F49DC0D901CD91DC9182
:102330001197C617D70798F0C530D10530F3CE01F5
:1023400004978617970708F3C61BD70B2297C193EC
:10235000D1936D937C93CF010E94EF10D6CF5B0198
:10236000AC1ABD0A4C018C0E9D1EA0917F03B0914A
:102370008003512C412CF12CE12C109731F58091E8
:102380007D0390917E038815990509F05CC046167F
:10239000570608F058C080911601909117010097D8
:1023A00041F48DB79EB740911A0150911B01841BD7
:1023B000950BE817F90708F055C0F0937E03E093FA
:1023C0007D03F90171836083A0CF8D919C9111975A
:1023D00012966C90129713967C901397A815B905D6
:1023E00059F56C0142E0C40ED11CCA14DB0420F183
:1023F000AC014A195B09DA011296159780F06282E6
:10240000738251834083D9016D937C93E114F1046D
:1024100071F0D7011396FC93EE93129776CF229624
:102420008C0F9D1FF90191838083F301EFCFF0930F
:102430008003E0937F0369CF4816590608F42C0106
:102440007D01D3019ACFCB010E9453107C010097EC
:1024500049F0AE01B8010E943512C8010E94EF1088
:10246000870153CF10E000E050CFFB01DC0102C038
:1024700001900D9241505040D8F70895FB01DC01C6
:1024800001900D920020E1F7089510E0C3E6D0E03E
:1024900004C0FE010E944D102196C436D107C9F731
:0424A000F894FFCFDE
:1024A400FF0101010101010101010101010101011A
:1024B40001FFFFFFFF01000081038000B00000B0B6
:1024C4002000AB01BE01CF01E001F30104021502BB
:1024D400260237024802F301E0015902BE01AB01B2
:1024E4002602101010400E0F1011000000002E01E3
:1024F4008E00BB008001EC00CA00DE00000000007A
:102504003C058E00A902A80241726475696E6F20B1
:102514004D494449004261737320506564616C0005
:1025240056657273696F6E20312E3000526576697C
:1025340073696F6E202332004F63743D00436861FA
:102544003D0056656C3D004000640023303332206A
:1025540041636F7573746963204261737300233040
:1025640033332046696E67657220426173730023BA
:10257400303334205069636B204261737320200030
:102584002330333520467265746C65737320426161
:102594007373002330333620536C617020426173AF
:1025A400732031002330333720536C617020426133
:1025B4007373203200233033382053796E742042F1
:1025C400617373203100233033392053796E7420C2
:1025D400426173732032002330343820537472699B
:1025E4006E677320312020002330343920537472F5
:1025F400696E67732032202000233035342043680D
:0A2604006F69722041414853200025
:107E0000112484B714BE81FFF0D085E080938100F7
:107E100082E08093C00088E18093C10086E0809377
:107E2000C20080E18093C4008EE0C9D0259A86E02C
:107E300020E33CEF91E0309385002093840096BBD3
:107E4000B09BFECF1D9AA8958150A9F7CC24DD24C4
:107E500088248394B5E0AB2EA1E19A2EF3E0BF2EE7
:107E6000A2D0813461F49FD0082FAFD0023811F036
:107E7000013811F484E001C083E08DD089C08234E0
:107E800011F484E103C0853419F485E0A6D080C0E4
:107E9000853579F488D0E82EFF2485D0082F10E0AE
:107EA000102F00270E291F29000F111F8ED06801E7
:107EB0006FC0863521F484E090D080E0DECF843638
:107EC00009F040C070D06FD0082F6DD080E0C81688
:107ED00080E7D80618F4F601B7BEE895C0E0D1E017
:107EE00062D089930C17E1F7F0E0CF16F0E7DF06D8
:107EF00018F0F601B7BEE89568D007B600FCFDCFD4
:107F0000A601A0E0B1E02C9130E011968C91119780
:107F100090E0982F8827822B932B1296FA010C0160
:107F200087BEE89511244E5F5F4FF1E0A038BF0790
:107F300051F7F601A7BEE89507B600FCFDCF97BE46
:107F4000E89526C08437B1F42ED02DD0F82E2BD052
:107F50003CD0F601EF2C8F010F5F1F4F84911BD097
:107F6000EA94F801C1F70894C11CD11CFA94CF0C13
:107F7000D11C0EC0853739F428D08EE10CD085E9AC
:107F80000AD08FE07ACF813511F488E018D01DD067
:107F900080E101D065CF982F8091C00085FFFCCF94
:107FA0009093C60008958091C00087FFFCCF809118
:107FB000C00084FD01C0A8958091C6000895E0E648
:107FC000F0E098E1908380830895EDDF803219F02E
:107FD00088E0F5DFFFCF84E1DECF1F93182FE3DFCA
:107FE0001150E9F7F2DF1F91089580E0E8DFEE27F6
:047FF000FF270994CA
:027FFE00040479
:0400000300007E007B
:00000001FF
